:020000002E2AA6
:06000600000000000800EC
:10000C000F3083120313FC004730FD00FD0B0C284E
:0A001C00FC0B0C2800000000080097
:0E002600213083120313FD00FD0B1728080084
:1000340083160313E71B21288312871323288312B3
:1000440087178316671B2928831207132B2883120B
:1000540007178316E71A312883128712332883126D
:1000640087168316671A3928831207123B288312CE
:1000740007166F183F280715402807118715032016
:1000840087118316E7194928831287134B28831293
:10009400871783166719512883120713532883126D
:1000A40007178316E7185928831287125B288312CF
:1000B4008716831667186128831207126328831230
:1000C40007166F1867280715682807118715032076
:0E00D40087116F1C6F2806207028132008006B
:1000E20083120313F801F9011030FC00710DF80DB1
:1000F200F90D7408F8027508031C750FF90203184C
:1001020089287408F80775080318750FF907031092
:0A011200F00DF10DFC0B772808003A
:10011C000E3083120313FD00FD0B92280000080023
:0E012C00831603132B088A002A08820008009D
:10013A00831203136F1083166208E7001A206F14E4
:02014A000800AB
:10014C0083160313E501053065020318B42865080E
:10015C006407840020308000E50AA928650864073C
:10016C0084008001E50365086407E6000A30F400AA
:10017C00F5016208F0006308F10071207808F000C6
:10018C007908F1003030F007831666088400700897
:10019C0080000A30F400F5016208F0006308F100F9
:1001AC00712070088316E2007108E30000307106BC
:1001BC00031DE22800307006031DE528E728E5033F
:0401CC00B928080046
:1001D00003308312031388000230FB000430FC005C
:1001E000BA30FD00FD0BF228FC0BF228FB0BF228C5
:0E01F00000008B1001308316E7001A20080073
:1001FE0083160313DE01DF015908E0005A08E100FF
:10020E0080305A06F00080307002031D1029003035
:10021E00590203181E290130DE000030DF00590894
:10022E00003CE0005A08031C013EE101E1026008B7
:10023E00E2006108E3005B08E400A6200630DC0063
:10024E000030DD005D08003C031D2F295C08003CDA
:10025E0003184A295C085B07F20001305C02F000CB
:10026E000030031C013E5D02F10070085B07840044
:10027E000008F00072088400700880000130DC0273
:10028E00031CDD0329295B088400203080005E08F2
:10029E005F0403196829DC01DD015C085B0784003B
:1002AE000008203A031D5F29DC0A0319DD0A5429D0
:1002BE000130DC02031CDD035C085B0784002D307B
:0402CE0080000800A4
:1002D2007B29803083160313D9008E29C030D900C0
:1002E2008E299430D9008E29D430D9008E298030BD
:1002F200D9008E29831603135908013A03196A2972
:100302005908023A03196F295908033A0319722945
:100312005908043A0319752978295A03F000590833
:10032200F0077008D9007008E7001A206F108316D2
:10033200DC015C085B07840000080319A9295C083A
:100342005B0784000008E2009D208316DC0A9A29DC
:0603520083126F14080085
:1003580083160313871107110712871207138713D0
:1003680083128711071187130713871207120620B4
:1003780006200620871607168715032087110620F2
:10038800871503208711062087150320871106206B
:100398000712871503208711062087150320871168
:1003A80087128717871503208711062087130716DA
:1003B8008715032087110712871503208711062048
:1003C8008715032087110716871503208711062034
:1003D800071287150320871187170717871607162F
:0C03E80087150320871106206F14080001
:1003F40096208A110A128000840AAA0A0319AB0AF9
:08040400F003031DFA290800B2
:10040C00C330831203139F05C0309F008316590815
:10041C00F000F00D7010F00D7010700883129F0436
:10042C004D09F000700883169F059F1783121F1447
:10043C008E209F149F1C242A0000202A1F101E08A7
:10044C00F100F00183161E08F0040030F1040800DE
:10045C003024AC210C308316E7001A2001308316AF
:10046C00E7001A2001308316D9000330DA00283057
:10047C00DB00692102308316D9000330DA0020300A
:10048C00DB0069210530FB000F30FC00F130FD0072
:10049C00FD0B4E2AFC0B4E2AFB0B4E2A0130831609
:1004AC00E7001A2003178713881307308316880078
:1004BC00890103138801831288018B170B1683168D
:1004CC0001138316D90106227008A8007108A9002F
:1004DC000130D900062270088312ED007108EE007D
:1004EC0002308316D900062270088312EB007108C3
:1004FC00EC008030013AF00080308316290670023F
:10050C00031D8A2A2808F43C0318BE2A8312ED0125
:10051C00EE01EB01EC0101308316E7001A20831683
:10052C002808D9002908DA00AC30DB00FF200130A4
:10053C00D9000330DA005C30DB006921023083160D
:10054C00D9000330DA00AC30DB0069210330FB004A
:10055C000830FC007730FD00FD0BB22AFC0BB22AF0
:10056C00FB0BB22A01308316E7001A20E820D62BA9
:10057C0083128030013AF00080306E067002031D49
:10058C00C92A6D08F43C0318002B8316A801A90195
:10059C008312EB01EC0101308316E7001A206D0881
:1005AC008316D90083126E088316DA00BB30DB0089
:1005BC00FF200130D9000330DA005630DB0069210E
:1005CC0002308316D9000330DA00BB30DB0069211E
:1005DC000330FB000830FC007730FD00FD0BF42AE3
:1005EC00FC0BF42AFB0BF42A01308316E7001A20CB
:1005FC00E820D62B8030013AF00080306C06700277
:10060C00031D0A2B6B08F43C03183F2BED01EE0184
:10061C008316A801A9010130E7001A206B08831684
:10062C00D90083126C088316DA00CA30DB00FF2075
:10063C000130D9000330DA00A030DB006921023030
:10064C008316D9000330DA00CA30DB00692103308D
:10065C00FB000830FC007730FD00FD0B332BFC0B4E
:10066C00332BFB0B332B01308316E7001A20E820C9
:10067C00D62B0430880001308316E7001A20013095
:10068C008316D9000330DA006030DB0069210230B8
:10069C008316D9000130DA003C30DB00692182304E
:1006AC00FC00DD30FD00FD0B592BFC0B592B000021
:1006BC00000001308316E7001A2083162808D900A1
:1006CC002908DA00AC30DB00FF200130D900033000
:1006DC00DA003830DB00692102308316D900033090
:1006EC00DA00AC30DB0069218230FC00DD30FD002B
:1006FC00FD0B7E2BFC0B7E2B0000000001308316C3
:10070C00E7001A206D088316D90083126E08831631
:10071C00DA00BB30DB00FF200130D9000330DA00F7
:10072C003230DB00692102308316D9000330DA0045
:10073C00BB30DB0069218230FC00DD30FD00FD0B9D
:10074C00A52BFC0BA52B0000000001308316E70045
:10075C001A206B088316D90083126C088316DA00F2
:10076C00CA30DB00FF200130D9000330DA004E30F4
:10077C00DB00692102308316D9000330DA00CA305D
:10078C00DB0069218230FC00DD30FD00FD0BCC2B41
:10079C00FC0BCC2B0000000001308316E7001A2064
:0407AC00672AD72BB6
:10086000203084004B3083120313F000DD308316F8
:10087000AA000330AB00FA21A03084000830031333
:10088000F00028308316AA000430AB00FA210800DB
:1007BA0047347534723475346C3474347534003497
:1007CA00473461347A342D34443475346D346134A9
:0407DA006E34003445
:0C07DE00443455344D3441344E34003462
:0807EA00473441345A34003455
:1007F20044346534673465347234643465346E3439
:10080200203441347334613467346934643461347C
:020812000034B0
:0208140030347E
:1008160047345534523455344C34543455340034FA
:0C082600443455344D3441344E34003419
:08083200473441345A3400340C
:10083A00423465346C34693472346C3465346E34E1
:06084A0065346E34003439
:1008500047345534523455344C34543455340034C0
:04400E00F22F000786
:00000001FF
